{
  "_format": "hh-sol-artifact-1",
  "contractName": "MarketPlace",
  "sourceName": "contracts/MarketPlace.sol",
  "abi": [
    {
      "inputs": [],
      "name": "NFT_alreadyListed",
      "type": "error"
    },
    {
      "inputs": [],
      "name": "NftIsNotApproved",
      "type": "error"
    },
    {
      "inputs": [],
      "name": "PleaseMakeAllowanceFirst",
      "type": "error"
    },
    {
      "inputs": [],
      "name": "PleaseSendCorreactPrice",
      "type": "error"
    },
    {
      "inputs": [],
      "name": "TransferFailed",
      "type": "error"
    },
    {
      "inputs": [],
      "name": "YouAreNotOwnerOfNFT",
      "type": "error"
    },
    {
      "anonymous": false,
      "inputs": [
        {
          "indexed": true,
          "internalType": "address",
          "name": "buyer",
          "type": "address"
        },
        {
          "indexed": true,
          "internalType": "address",
          "name": "nftAddress",
          "type": "address"
        },
        {
          "indexed": true,
          "internalType": "uint256",
          "name": "tokenId",
          "type": "uint256"
        },
        {
          "indexed": false,
          "internalType": "uint256",
          "name": "price",
          "type": "uint256"
        }
      ],
      "name": "ItemBought",
      "type": "event"
    },
    {
      "anonymous": false,
      "inputs": [
        {
          "indexed": true,
          "internalType": "address",
          "name": "seller",
          "type": "address"
        },
        {
          "indexed": true,
          "internalType": "address",
          "name": "nftAddress",
          "type": "address"
        },
        {
          "indexed": true,
          "internalType": "uint256",
          "name": "tokenId",
          "type": "uint256"
        }
      ],
      "name": "ItemCanceled",
      "type": "event"
    },
    {
      "anonymous": false,
      "inputs": [
        {
          "indexed": true,
          "internalType": "address",
          "name": "seller",
          "type": "address"
        },
        {
          "indexed": true,
          "internalType": "address",
          "name": "nftAddress",
          "type": "address"
        },
        {
          "indexed": true,
          "internalType": "uint256",
          "name": "tokenId",
          "type": "uint256"
        },
        {
          "indexed": false,
          "internalType": "uint256",
          "name": "price",
          "type": "uint256"
        }
      ],
      "name": "ItemListed",
      "type": "event"
    },
    {
      "inputs": [],
      "name": "ListdItems",
      "outputs": [
        {
          "internalType": "uint256",
          "name": "",
          "type": "uint256"
        }
      ],
      "stateMutability": "view",
      "type": "function"
    },
    {
      "inputs": [
        {
          "internalType": "address",
          "name": "",
          "type": "address"
        },
        {
          "internalType": "uint256",
          "name": "",
          "type": "uint256"
        }
      ],
      "name": "_auctionDetail",
      "outputs": [
        {
          "internalType": "address payable",
          "name": "seller",
          "type": "address"
        },
        {
          "internalType": "uint256",
          "name": "basePrice",
          "type": "uint256"
        },
        {
          "internalType": "address",
          "name": "highestBidder",
          "type": "address"
        },
        {
          "internalType": "uint256",
          "name": "highestBid",
          "type": "uint256"
        },
        {
          "internalType": "uint256",
          "name": "endTime",
          "type": "uint256"
        },
        {
          "internalType": "uint256",
          "name": "starTime",
          "type": "uint256"
        },
        {
          "internalType": "bool",
          "name": "ended",
          "type": "bool"
        },
        {
          "internalType": "bool",
          "name": "auction",
          "type": "bool"
        }
      ],
      "stateMutability": "view",
      "type": "function"
    },
    {
      "inputs": [
        {
          "internalType": "address",
          "name": "_nft",
          "type": "address"
        },
        {
          "internalType": "uint256",
          "name": "_tokenId",
          "type": "uint256"
        }
      ],
      "name": "_checkAuctionStatus",
      "outputs": [
        {
          "internalType": "bool",
          "name": "",
          "type": "bool"
        }
      ],
      "stateMutability": "view",
      "type": "function"
    },
    {
      "inputs": [
        {
          "internalType": "address",
          "name": "_nft",
          "type": "address"
        },
        {
          "internalType": "uint256",
          "name": "_tokenId",
          "type": "uint256"
        }
      ],
      "name": "_updateStatus",
      "outputs": [],
      "stateMutability": "nonpayable",
      "type": "function"
    },
    {
      "inputs": [
        {
          "internalType": "address",
          "name": "_nft",
          "type": "address"
        },
        {
          "internalType": "uint256",
          "name": "_tokenId",
          "type": "uint256"
        }
      ],
      "name": "acceptOffer",
      "outputs": [],
      "stateMutability": "nonpayable",
      "type": "function"
    },
    {
      "inputs": [
        {
          "internalType": "address",
          "name": "_nft",
          "type": "address"
        },
        {
          "internalType": "uint256",
          "name": "_tokenId",
          "type": "uint256"
        },
        {
          "internalType": "address",
          "name": "_token",
          "type": "address"
        },
        {
          "internalType": "uint256",
          "name": "_amount",
          "type": "uint256"
        }
      ],
      "name": "bid",
      "outputs": [],
      "stateMutability": "nonpayable",
      "type": "function"
    },
    {
      "inputs": [
        {
          "internalType": "address",
          "name": "_nft",
          "type": "address"
        },
        {
          "internalType": "uint256",
          "name": "_tokenId",
          "type": "uint256"
        }
      ],
      "name": "buyItem",
      "outputs": [],
      "stateMutability": "payable",
      "type": "function"
    },
    {
      "inputs": [
        {
          "internalType": "address",
          "name": "_nft",
          "type": "address"
        },
        {
          "internalType": "uint256",
          "name": "_tokenId",
          "type": "uint256"
        }
      ],
      "name": "cancelListing",
      "outputs": [],
      "stateMutability": "nonpayable",
      "type": "function"
    },
    {
      "inputs": [
        {
          "internalType": "address",
          "name": "_nft",
          "type": "address"
        },
        {
          "internalType": "uint256",
          "name": "_tokenId",
          "type": "uint256"
        }
      ],
      "name": "cancellAuction",
      "outputs": [],
      "stateMutability": "nonpayable",
      "type": "function"
    },
    {
      "inputs": [
        {
          "internalType": "uint256",
          "name": "",
          "type": "uint256"
        }
      ],
      "name": "collection",
      "outputs": [
        {
          "internalType": "address",
          "name": "",
          "type": "address"
        }
      ],
      "stateMutability": "view",
      "type": "function"
    },
    {
      "inputs": [
        {
          "internalType": "address",
          "name": "",
          "type": "address"
        },
        {
          "internalType": "uint256",
          "name": "",
          "type": "uint256"
        }
      ],
      "name": "collectionData",
      "outputs": [
        {
          "internalType": "uint256",
          "name": "",
          "type": "uint256"
        }
      ],
      "stateMutability": "view",
      "type": "function"
    },
    {
      "inputs": [
        {
          "internalType": "address",
          "name": "_nft",
          "type": "address"
        },
        {
          "internalType": "uint256",
          "name": "_tokenId",
          "type": "uint256"
        },
        {
          "internalType": "address",
          "name": "_token",
          "type": "address"
        }
      ],
      "name": "concludeAuction",
      "outputs": [],
      "stateMutability": "nonpayable",
      "type": "function"
    },
    {
      "inputs": [
        {
          "internalType": "address",
          "name": "_nft",
          "type": "address"
        },
        {
          "internalType": "uint256",
          "name": "_tokenId",
          "type": "uint256"
        },
        {
          "internalType": "uint256",
          "name": "_basePrice",
          "type": "uint256"
        },
        {
          "internalType": "uint256",
          "name": "endTime",
          "type": "uint256"
        }
      ],
      "name": "createAuction",
      "outputs": [],
      "stateMutability": "nonpayable",
      "type": "function"
    },
    {
      "inputs": [],
      "name": "getCollectionLength",
      "outputs": [
        {
          "internalType": "uint256",
          "name": "",
          "type": "uint256"
        }
      ],
      "stateMutability": "view",
      "type": "function"
    },
    {
      "inputs": [
        {
          "internalType": "address",
          "name": "_contractAddress",
          "type": "address"
        }
      ],
      "name": "getCollectionNFTs",
      "outputs": [
        {
          "internalType": "uint256[]",
          "name": "",
          "type": "uint256[]"
        }
      ],
      "stateMutability": "view",
      "type": "function"
    },
    {
      "inputs": [
        {
          "internalType": "address",
          "name": "_nft",
          "type": "address"
        },
        {
          "internalType": "uint256",
          "name": "_tokenId",
          "type": "uint256"
        }
      ],
      "name": "getHighestBid",
      "outputs": [
        {
          "internalType": "uint256",
          "name": "",
          "type": "uint256"
        }
      ],
      "stateMutability": "view",
      "type": "function"
    },
    {
      "inputs": [
        {
          "internalType": "address",
          "name": "_nft",
          "type": "address"
        },
        {
          "internalType": "uint256",
          "name": "_tokenId",
          "type": "uint256"
        }
      ],
      "name": "getHighestBidder",
      "outputs": [
        {
          "internalType": "address",
          "name": "",
          "type": "address"
        }
      ],
      "stateMutability": "view",
      "type": "function"
    },
    {
      "inputs": [
        {
          "internalType": "address",
          "name": "_nft",
          "type": "address"
        },
        {
          "internalType": "uint256",
          "name": "_tokenId",
          "type": "uint256"
        }
      ],
      "name": "getLastTime",
      "outputs": [
        {
          "internalType": "uint256",
          "name": "",
          "type": "uint256"
        }
      ],
      "stateMutability": "view",
      "type": "function"
    },
    {
      "inputs": [
        {
          "internalType": "address",
          "name": "_nft",
          "type": "address"
        },
        {
          "internalType": "uint256",
          "name": "_tokenId",
          "type": "uint256"
        }
      ],
      "name": "getOffer",
      "outputs": [
        {
          "internalType": "uint256",
          "name": "",
          "type": "uint256"
        },
        {
          "internalType": "address",
          "name": "",
          "type": "address"
        }
      ],
      "stateMutability": "view",
      "type": "function"
    },
    {
      "inputs": [
        {
          "internalType": "address",
          "name": "_nft",
          "type": "address"
        },
        {
          "internalType": "uint256",
          "name": "_tokenId",
          "type": "uint256"
        }
      ],
      "name": "isAuction",
      "outputs": [
        {
          "internalType": "bool",
          "name": "",
          "type": "bool"
        }
      ],
      "stateMutability": "view",
      "type": "function"
    },
    {
      "inputs": [
        {
          "internalType": "address",
          "name": "",
          "type": "address"
        },
        {
          "internalType": "uint256",
          "name": "",
          "type": "uint256"
        }
      ],
      "name": "listing",
      "outputs": [
        {
          "internalType": "uint256",
          "name": "price",
          "type": "uint256"
        },
        {
          "internalType": "address payable",
          "name": "seller",
          "type": "address"
        },
        {
          "internalType": "uint256",
          "name": "startTime",
          "type": "uint256"
        },
        {
          "internalType": "uint256",
          "name": "endTime",
          "type": "uint256"
        },
        {
          "internalType": "bool",
          "name": "cancelListing",
          "type": "bool"
        },
        {
          "internalType": "bool",
          "name": "sale",
          "type": "bool"
        },
        {
          "internalType": "bool",
          "name": "listed",
          "type": "bool"
        }
      ],
      "stateMutability": "view",
      "type": "function"
    },
    {
      "inputs": [
        {
          "internalType": "address",
          "name": "_nft",
          "type": "address"
        },
        {
          "internalType": "uint256",
          "name": "_tokenId",
          "type": "uint256"
        },
        {
          "internalType": "address",
          "name": "_token",
          "type": "address"
        },
        {
          "internalType": "uint256",
          "name": "_amount",
          "type": "uint256"
        }
      ],
      "name": "makeOffer",
      "outputs": [],
      "stateMutability": "nonpayable",
      "type": "function"
    },
    {
      "inputs": [
        {
          "internalType": "address",
          "name": "",
          "type": "address"
        },
        {
          "internalType": "uint256",
          "name": "",
          "type": "uint256"
        }
      ],
      "name": "makeoffer",
      "outputs": [
        {
          "internalType": "uint256",
          "name": "amount",
          "type": "uint256"
        },
        {
          "internalType": "address",
          "name": "buyer",
          "type": "address"
        },
        {
          "internalType": "address",
          "name": "offerToken",
          "type": "address"
        }
      ],
      "stateMutability": "view",
      "type": "function"
    },
    {
      "inputs": [
        {
          "internalType": "address",
          "name": "_nft",
          "type": "address"
        },
        {
          "internalType": "uint256",
          "name": "_tokenId",
          "type": "uint256"
        },
        {
          "internalType": "uint256",
          "name": "_price",
          "type": "uint256"
        },
        {
          "internalType": "uint256",
          "name": "_endTime",
          "type": "uint256"
        }
      ],
      "name": "sellItem",
      "outputs": [],
      "stateMutability": "nonpayable",
      "type": "function"
    },
    {
      "inputs": [],
      "name": "totalAuctionSale",
      "outputs": [
        {
          "internalType": "uint256",
          "name": "",
          "type": "uint256"
        }
      ],
      "stateMutability": "view",
      "type": "function"
    }
  ],
  "bytecode": "0x608060405234801561001057600080fd5b506001600081905550614c35806100286000396000f3fe6080604052600436106101665760003560e01c8063a670a9b4116100d1578063c8c39aeb1161008a578063d9a0cbb911610064578063d9a0cbb914610585578063f0772377146105c2578063f1f3d388146105ff578063fd7226db1461063c57610166565b8063c8c39aeb146104e0578063d48351a91461050b578063d712c1e61461054857610166565b8063a670a9b4146103ad578063ac71045e146103ea578063b1b9e78d14610428578063b2ddee0614610451578063b56785881461047a578063c5864c3c146104a357610166565b80636ae50a22116101235780636ae50a22146102945780637621f5c4146102bd578063784d5342146102e85780638226508d146103115780638de820f61461034e5780639f37092a1461039157610166565b80631bc5593a1461016b5780633096fe2d146101aa5780633cc6221a146101d357806344ac0c41146102175780634a5503381461024257806361beb1d71461026b575b600080fd5b34801561017757600080fd5b50610192600480360381019061018d9190613e07565b610665565b6040516101a193929190613e65565b60405180910390f35b3480156101b657600080fd5b506101d160048036038101906101cc9190613e9c565b6106dc565b005b3480156101df57600080fd5b506101fa60048036038101906101f59190613e07565b610aeb565b60405161020e989796959493929190613f3f565b60405180910390f35b34801561022357600080fd5b5061022c610b9a565b6040516102399190613fbd565b60405180910390f35b34801561024e57600080fd5b5061026960048036038101906102649190613e07565b610ba0565b005b34801561027757600080fd5b50610292600480360381019061028d9190613fd8565b610f2e565b005b3480156102a057600080fd5b506102bb60048036038101906102b69190613e07565b611546565b005b3480156102c957600080fd5b506102d2611a65565b6040516102df9190613fbd565b60405180910390f35b3480156102f457600080fd5b5061030f600480360381019061030a919061403f565b611a6b565b005b34801561031d57600080fd5b5061033860048036038101906103339190613e07565b61208d565b6040516103459190613fbd565b60405180910390f35b34801561035a57600080fd5b5061037560048036038101906103709190613e07565b612206565b6040516103889796959493929190614092565b60405180910390f35b6103ab60048036038101906103a69190613e07565b61229c565b005b3480156103b957600080fd5b506103d460048036038101906103cf9190613e07565b61260a565b6040516103e19190614101565b60405180910390f35b3480156103f657600080fd5b50610411600480360381019061040c9190613e07565b612783565b60405161041f92919061411c565b60405180910390f35b34801561043457600080fd5b5061044f600480360381019061044a9190613e07565b6128b1565b005b34801561045d57600080fd5b5061047860048036038101906104739190613e07565b612c0b565b005b34801561048657600080fd5b506104a1600480360381019061049c9190613e9c565b612e7e565b005b3480156104af57600080fd5b506104ca60048036038101906104c59190614145565b613254565b6040516104d79190614230565b60405180910390f35b3480156104ec57600080fd5b506104f56132eb565b6040516105029190613fbd565b60405180910390f35b34801561051757600080fd5b50610532600480360381019061052d9190613e07565b6132f8565b60405161053f9190614252565b60405180910390f35b34801561055457600080fd5b5061056f600480360381019061056a9190613e07565b6134e4565b60405161057c9190613fbd565b60405180910390f35b34801561059157600080fd5b506105ac60048036038101906105a79190613e07565b61365d565b6040516105b99190614252565b60405180910390f35b3480156105ce57600080fd5b506105e960048036038101906105e4919061426d565b6136df565b6040516105f69190614101565b60405180910390f35b34801561060b57600080fd5b5061062660048036038101906106219190613e07565b61371e565b6040516106339190613fbd565b60405180910390f35b34801561064857600080fd5b50610663600480360381019061065e9190613fd8565b61374f565b005b6005602052816000526040600020602052806000526040600020600091509150508060000154908060010160009054906101000a900473ffffffffffffffffffffffffffffffffffffffff16908060020160009054906101000a900473ffffffffffffffffffffffffffffffffffffffff16905083565b6000600560008673ffffffffffffffffffffffffffffffffffffffff1673ffffffffffffffffffffffffffffffffffffffff1681526020019081526020016000206000858152602001908152602001600020604051806060016040529081600082015481526020016001820160009054906101000a900473ffffffffffffffffffffffffffffffffffffffff1673ffffffffffffffffffffffffffffffffffffffff1673ffffffffffffffffffffffffffffffffffffffff1681526020016002820160009054906101000a900473ffffffffffffffffffffffffffffffffffffffff1673ffffffffffffffffffffffffffffffffffffffff1673ffffffffffffffffffffffffffffffffffffffff1681525050905081816000015110610837576040517f08c379a000000000000000000000000000000000000000000000000000000000815260040161082e906142f7565b60405180910390fd5b818373ffffffffffffffffffffffffffffffffffffffff166370a08231336040518263ffffffff1660e01b81526004016108719190614101565b602060405180830381865afa15801561088e573d6000803e3d6000fd5b505050506040513d601f19601f820116820180604052508101906108b2919061432c565b10156108f3576040517f08c379a00000000000000000000000000000000000000000000000000000000081526004016108ea906143a5565b60405180910390fd5b60008373ffffffffffffffffffffffffffffffffffffffff1663dd62ed3e33306040518363ffffffff1660e01b81526004016109309291906143c5565b602060405180830381865afa15801561094d573d6000803e3d6000fd5b505050506040513d601f19601f82011682018060405250810190610971919061432c565b9050828110610ab15760405180606001604052808481526020013373ffffffffffffffffffffffffffffffffffffffff1681526020018573ffffffffffffffffffffffffffffffffffffffff16815250600560008873ffffffffffffffffffffffffffffffffffffffff1673ffffffffffffffffffffffffffffffffffffffff16815260200190815260200160002060008781526020019081526020016000206000820151816000015560208201518160010160006101000a81548173ffffffffffffffffffffffffffffffffffffffff021916908373ffffffffffffffffffffffffffffffffffffffff16021790555060408201518160020160006101000a81548173ffffffffffffffffffffffffffffffffffffffff021916908373ffffffffffffffffffffffffffffffffffffffff160217905550905050610ae3565b6040517fff0fc96100000000000000000000000000000000000000000000000000000000815260040160405180910390fd5b505050505050565b6006602052816000526040600020602052806000526040600020600091509150508060000160009054906101000a900473ffffffffffffffffffffffffffffffffffffffff16908060010154908060020160009054906101000a900473ffffffffffffffffffffffffffffffffffffffff16908060030154908060040154908060050154908060060160009054906101000a900460ff16908060060160019054906101000a900460ff16905088565b60015481565b6000600660008473ffffffffffffffffffffffffffffffffffffffff1673ffffffffffffffffffffffffffffffffffffffff1681526020019081526020016000206000838152602001908152602001600020604051806101000160405290816000820160009054906101000a900473ffffffffffffffffffffffffffffffffffffffff1673ffffffffffffffffffffffffffffffffffffffff1673ffffffffffffffffffffffffffffffffffffffff168152602001600182015481526020016002820160009054906101000a900473ffffffffffffffffffffffffffffffffffffffff1673ffffffffffffffffffffffffffffffffffffffff1673ffffffffffffffffffffffffffffffffffffffff1681526020016003820154815260200160048201548152602001600582015481526020016006820160009054906101000a900460ff161515151581526020016006820160019054906101000a900460ff1615151515815250509050600015158160c00151151514610d55576040517f08c379a0000000000000000000000000000000000000000000000000000000008152600401610d4c9061443a565b60405180910390fd5b8060800151421115610d735760018160c00190151590811515815250505b80600660008573ffffffffffffffffffffffffffffffffffffffff1673ffffffffffffffffffffffffffffffffffffffff168152602001908152602001600020600084815260200190815260200160002060008201518160000160006101000a81548173ffffffffffffffffffffffffffffffffffffffff021916908373ffffffffffffffffffffffffffffffffffffffff1602179055506020820151816001015560408201518160020160006101000a81548173ffffffffffffffffffffffffffffffffffffffff021916908373ffffffffffffffffffffffffffffffffffffffff160217905550606082015181600301556080820151816004015560a0820151816005015560c08201518160060160006101000a81548160ff02191690831515021790555060e08201518160060160016101000a81548160ff0219169083151502179055509050506000600660008573ffffffffffffffffffffffffffffffffffffffff1673ffffffffffffffffffffffffffffffffffffffff168152602001908152602001600020600084815260200190815260200160002060060160016101000a81548160ff021916908315150217905550505050565b3073ffffffffffffffffffffffffffffffffffffffff168473ffffffffffffffffffffffffffffffffffffffff1663081812fc856040518263ffffffff1660e01b8152600401610f7e9190613fbd565b602060405180830381865afa158015610f9b573d6000803e3d6000fd5b505050506040513d601f19601f82011682018060405250810190610fbf919061446f565b73ffffffffffffffffffffffffffffffffffffffff161461100c576040517f51a4971800000000000000000000000000000000000000000000000000000000815260040160405180910390fd5b6001600081548092919061101f906144cb565b91905055506001816110319190614513565b9050804261103f919061456d565b90506040518061010001604052803373ffffffffffffffffffffffffffffffffffffffff168152602001838152602001600073ffffffffffffffffffffffffffffffffffffffff1681526020016000815260200182815260200142815260200160001515815260200160011515815250600660008673ffffffffffffffffffffffffffffffffffffffff1673ffffffffffffffffffffffffffffffffffffffff168152602001908152602001600020600085815260200190815260200160002060008201518160000160006101000a81548173ffffffffffffffffffffffffffffffffffffffff021916908373ffffffffffffffffffffffffffffffffffffffff1602179055506020820151816001015560408201518160020160006101000a81548173ffffffffffffffffffffffffffffffffffffffff021916908373ffffffffffffffffffffffffffffffffffffffff160217905550606082015181600301556080820151816004015560a0820151816005015560c08201518160060160006101000a81548160ff02191690831515021790555060e08201518160060160016101000a81548160ff0219169083151502179055509050506040518060e001604052808381526020013373ffffffffffffffffffffffffffffffffffffffff168152602001600081526020016000815260200160001515815260200160001515815260200160011515815250600460008673ffffffffffffffffffffffffffffffffffffffff1673ffffffffffffffffffffffffffffffffffffffff16815260200190815260200160002060008581526020019081526020016000206000820151816000015560208201518160010160006101000a81548173ffffffffffffffffffffffffffffffffffffffff021916908373ffffffffffffffffffffffffffffffffffffffff160217905550604082015181600201556060820151816003015560808201518160040160006101000a81548160ff02191690831515021790555060a08201518160040160016101000a81548160ff02191690831515021790555060c08201518160040160026101000a81548160ff021916908315150217905550905050600080600090505b600380549050811015611402578573ffffffffffffffffffffffffffffffffffffffff16600382815481106113a4576113a36145c3565b5b9060005260206000200160009054906101000a900473ffffffffffffffffffffffffffffffffffffffff1673ffffffffffffffffffffffffffffffffffffffff16036113ef57600191505b80806113fa906144cb565b91505061136c565b506000151581151503611473576003859080600181540180825580915050600190039060005260206000200160009091909190916101000a81548173ffffffffffffffffffffffffffffffffffffffff021916908373ffffffffffffffffffffffffffffffffffffffff1602179055505b600760008673ffffffffffffffffffffffffffffffffffffffff1673ffffffffffffffffffffffffffffffffffffffff168152602001908152602001600020849080600181540180825580915050600190039060005260206000200160009091909190915055838573ffffffffffffffffffffffffffffffffffffffff163373ffffffffffffffffffffffffffffffffffffffff167fd547e933094f12a9159076970143ebe73234e64480317844b0dcb36117116de4866040516115379190613fbd565b60405180910390a45050505050565b6000600660008473ffffffffffffffffffffffffffffffffffffffff1673ffffffffffffffffffffffffffffffffffffffff1681526020019081526020016000206000838152602001908152602001600020604051806101000160405290816000820160009054906101000a900473ffffffffffffffffffffffffffffffffffffffff1673ffffffffffffffffffffffffffffffffffffffff1673ffffffffffffffffffffffffffffffffffffffff168152602001600182015481526020016002820160009054906101000a900473ffffffffffffffffffffffffffffffffffffffff1673ffffffffffffffffffffffffffffffffffffffff1673ffffffffffffffffffffffffffffffffffffffff1681526020016003820154815260200160048201548152602001600582015481526020016006820160009054906101000a900460ff161515151581526020016006820160019054906101000a900460ff1615151515815250509050600660008473ffffffffffffffffffffffffffffffffffffffff1673ffffffffffffffffffffffffffffffffffffffff168152602001908152602001600020600083815260200190815260200160002060000160009054906101000a900473ffffffffffffffffffffffffffffffffffffffff1673ffffffffffffffffffffffffffffffffffffffff163373ffffffffffffffffffffffffffffffffffffffff1614611791576040517f08c379a00000000000000000000000000000000000000000000000000000000081526004016117889061463e565b60405180910390fd5b428160800151106117d7576040517f08c379a00000000000000000000000000000000000000000000000000000000081526004016117ce906146aa565b60405180910390fd5b60006117e384846132f8565b9050806117f5576117f48484610ba0565b5b6000600460008673ffffffffffffffffffffffffffffffffffffffff1673ffffffffffffffffffffffffffffffffffffffff16815260200190815260200160002060008581526020019081526020016000206040518060e0016040529081600082015481526020016001820160009054906101000a900473ffffffffffffffffffffffffffffffffffffffff1673ffffffffffffffffffffffffffffffffffffffff1673ffffffffffffffffffffffffffffffffffffffff16815260200160028201548152602001600382015481526020016004820160009054906101000a900460ff161515151581526020016004820160019054906101000a900460ff161515151581526020016004820160029054906101000a900460ff1615151515815250509050600181608001901515908115158152505060008160c001901515908115158152505080600460008773ffffffffffffffffffffffffffffffffffffffff1673ffffffffffffffffffffffffffffffffffffffff16815260200190815260200160002060008681526020019081526020016000206000820151816000015560208201518160010160006101000a81548173ffffffffffffffffffffffffffffffffffffffff021916908373ffffffffffffffffffffffffffffffffffffffff160217905550604082015181600201556060820151816003015560808201518160040160006101000a81548160ff02191690831515021790555060a08201518160040160016101000a81548160ff02191690831515021790555060c08201518160040160026101000a81548160ff021916908315150217905550905050611a5e8585613c2f565b5050505050565b60025481565b6000600660008573ffffffffffffffffffffffffffffffffffffffff1673ffffffffffffffffffffffffffffffffffffffff1681526020019081526020016000206000848152602001908152602001600020604051806101000160405290816000820160009054906101000a900473ffffffffffffffffffffffffffffffffffffffff1673ffffffffffffffffffffffffffffffffffffffff1673ffffffffffffffffffffffffffffffffffffffff168152602001600182015481526020016002820160009054906101000a900473ffffffffffffffffffffffffffffffffffffffff1673ffffffffffffffffffffffffffffffffffffffff1673ffffffffffffffffffffffffffffffffffffffff1681526020016003820154815260200160048201548152602001600582015481526020016006820160009054906101000a900460ff161515151581526020016006820160019054906101000a900460ff1615151515815250509050806040015173ffffffffffffffffffffffffffffffffffffffff163373ffffffffffffffffffffffffffffffffffffffff1614611c47576040517f08c379a0000000000000000000000000000000000000000000000000000000008152600401611c3e9061473c565b60405180910390fd5b42816080015110611c8d576040517f08c379a0000000000000000000000000000000000000000000000000000000008152600401611c84906146aa565b60405180910390fd5b6000611c9985856132f8565b905080611cab57611caa8585610ba0565b5b6000600460008773ffffffffffffffffffffffffffffffffffffffff1673ffffffffffffffffffffffffffffffffffffffff16815260200190815260200160002060008681526020019081526020016000206040518060e0016040529081600082015481526020016001820160009054906101000a900473ffffffffffffffffffffffffffffffffffffffff1673ffffffffffffffffffffffffffffffffffffffff1673ffffffffffffffffffffffffffffffffffffffff16815260200160028201548152602001600382015481526020016004820160009054906101000a900460ff161515151581526020016004820160019054906101000a900460ff161515151581526020016004820160029054906101000a900460ff16151515158152505090508573ffffffffffffffffffffffffffffffffffffffff166323b872dd826020015133886040518463ffffffff1660e01b8152600401611e10939291906147bb565b600060405180830381600087803b158015611e2a57600080fd5b505af1158015611e3e573d6000803e3d6000fd5b5050505060018160a00190151590811515815250508373ffffffffffffffffffffffffffffffffffffffff166323b872dd8460400151836020015186606001516040518463ffffffff1660e01b8152600401611e9c939291906147f2565b6020604051808303816000875af1158015611ebb573d6000803e3d6000fd5b505050506040513d601f19601f82011682018060405250810190611edf9190614855565b5060026000815480929190611ef3906144cb565b919050555080600460008873ffffffffffffffffffffffffffffffffffffffff1673ffffffffffffffffffffffffffffffffffffffff16815260200190815260200160002060008781526020019081526020016000206000820151816000015560208201518160010160006101000a81548173ffffffffffffffffffffffffffffffffffffffff021916908373ffffffffffffffffffffffffffffffffffffffff160217905550604082015181600201556060820151816003015560808201518160040160006101000a81548160ff02191690831515021790555060a08201518160040160016101000a81548160ff02191690831515021790555060c08201518160040160026101000a81548160ff02191690831515021790555090505061201b8686613c2f565b848673ffffffffffffffffffffffffffffffffffffffff163373ffffffffffffffffffffffffffffffffffffffff167f263223b1dd81e51054a4e6f791d45a4a1ddb4aadcd93a2dfd892615c3fdac187866060015160405161207d9190613fbd565b60405180910390a4505050505050565b600080600660008573ffffffffffffffffffffffffffffffffffffffff1673ffffffffffffffffffffffffffffffffffffffff1681526020019081526020016000206000848152602001908152602001600020604051806101000160405290816000820160009054906101000a900473ffffffffffffffffffffffffffffffffffffffff1673ffffffffffffffffffffffffffffffffffffffff1673ffffffffffffffffffffffffffffffffffffffff168152602001600182015481526020016002820160009054906101000a900473ffffffffffffffffffffffffffffffffffffffff1673ffffffffffffffffffffffffffffffffffffffff1673ffffffffffffffffffffffffffffffffffffffff1681526020016003820154815260200160048201548152602001600582015481526020016006820160009054906101000a900460ff161515151581526020016006820160019054906101000a900460ff1615151515815250509050806060015191505092915050565b6004602052816000526040600020602052806000526040600020600091509150508060000154908060010160009054906101000a900473ffffffffffffffffffffffffffffffffffffffff16908060020154908060030154908060040160009054906101000a900460ff16908060040160019054906101000a900460ff16908060040160029054906101000a900460ff16905087565b6000600460008473ffffffffffffffffffffffffffffffffffffffff1673ffffffffffffffffffffffffffffffffffffffff16815260200190815260200160002060008381526020019081526020016000209050806000015434101561232e576040517fa58aac5400000000000000000000000000000000000000000000000000000000815260040160405180910390fd5b60008160010160009054906101000a900473ffffffffffffffffffffffffffffffffffffffff1673ffffffffffffffffffffffffffffffffffffffff1634604051612378906148b3565b60006040518083038185875af1925050503d80600081146123b5576040519150601f19603f3d011682016040523d82523d6000602084013e6123ba565b606091505b50509050806123f5576040517f90b8ec1800000000000000000000000000000000000000000000000000000000815260040160405180910390fd5b60018260040160016101000a81548160ff02191690831515021790555060008260040160026101000a81548160ff0219169083151502179055508373ffffffffffffffffffffffffffffffffffffffff166342842e0e8360010160009054906101000a900473ffffffffffffffffffffffffffffffffffffffff1633866040518463ffffffff1660e01b8152600401612490939291906147bb565b600060405180830381600087803b1580156124aa57600080fd5b505af11580156124be573d6000803e3d6000fd5b50505050600460008573ffffffffffffffffffffffffffffffffffffffff1673ffffffffffffffffffffffffffffffffffffffff16815260200190815260200160002060008481526020019081526020016000206000808201600090556001820160006101000a81549073ffffffffffffffffffffffffffffffffffffffff0219169055600282016000905560038201600090556004820160006101000a81549060ff02191690556004820160016101000a81549060ff02191690556004820160026101000a81549060ff0219169055505061259a8484613c2f565b828473ffffffffffffffffffffffffffffffffffffffff163373ffffffffffffffffffffffffffffffffffffffff167f263223b1dd81e51054a4e6f791d45a4a1ddb4aadcd93a2dfd892615c3fdac18785600001546040516125fc9190613fbd565b60405180910390a450505050565b600080600660008573ffffffffffffffffffffffffffffffffffffffff1673ffffffffffffffffffffffffffffffffffffffff1681526020019081526020016000206000848152602001908152602001600020604051806101000160405290816000820160009054906101000a900473ffffffffffffffffffffffffffffffffffffffff1673ffffffffffffffffffffffffffffffffffffffff1673ffffffffffffffffffffffffffffffffffffffff168152602001600182015481526020016002820160009054906101000a900473ffffffffffffffffffffffffffffffffffffffff1673ffffffffffffffffffffffffffffffffffffffff1673ffffffffffffffffffffffffffffffffffffffff1681526020016003820154815260200160048201548152602001600582015481526020016006820160009054906101000a900460ff161515151581526020016006820160019054906101000a900460ff1615151515815250509050806040015191505092915050565b6000806000600560008673ffffffffffffffffffffffffffffffffffffffff1673ffffffffffffffffffffffffffffffffffffffff1681526020019081526020016000206000858152602001908152602001600020604051806060016040529081600082015481526020016001820160009054906101000a900473ffffffffffffffffffffffffffffffffffffffff1673ffffffffffffffffffffffffffffffffffffffff1673ffffffffffffffffffffffffffffffffffffffff1681526020016002820160009054906101000a900473ffffffffffffffffffffffffffffffffffffffff1673ffffffffffffffffffffffffffffffffffffffff1673ffffffffffffffffffffffffffffffffffffffff168152505090508060000151816020015192509250509250929050565b6000600460008473ffffffffffffffffffffffffffffffffffffffff1673ffffffffffffffffffffffffffffffffffffffff168152602001908152602001600020600083815260200190815260200160002090506000600560008573ffffffffffffffffffffffffffffffffffffffff1673ffffffffffffffffffffffffffffffffffffffff1681526020019081526020016000206000848152602001908152602001600020604051806060016040529081600082015481526020016001820160009054906101000a900473ffffffffffffffffffffffffffffffffffffffff1673ffffffffffffffffffffffffffffffffffffffff1673ffffffffffffffffffffffffffffffffffffffff1681526020016002820160009054906101000a900473ffffffffffffffffffffffffffffffffffffffff1673ffffffffffffffffffffffffffffffffffffffff1673ffffffffffffffffffffffffffffffffffffffff168152505090508160010160009054906101000a900473ffffffffffffffffffffffffffffffffffffffff1673ffffffffffffffffffffffffffffffffffffffff163373ffffffffffffffffffffffffffffffffffffffff1614612aac576040517f08c379a0000000000000000000000000000000000000000000000000000000008152600401612aa390614914565b60405180910390fd5b60018260040160016101000a81548160ff02191690831515021790555060008260040160026101000a81548160ff021916908315150217905550806040015173ffffffffffffffffffffffffffffffffffffffff166323b872dd82602001518460010160009054906101000a900473ffffffffffffffffffffffffffffffffffffffff1684600001516040518463ffffffff1660e01b8152600401612b53939291906147f2565b6020604051808303816000875af1158015612b72573d6000803e3d6000fd5b505050506040513d601f19601f82011682018060405250810190612b969190614855565b50828473ffffffffffffffffffffffffffffffffffffffff16826020015173ffffffffffffffffffffffffffffffffffffffff167f263223b1dd81e51054a4e6f791d45a4a1ddb4aadcd93a2dfd892615c3fdac1878460000151604051612bfd9190613fbd565b60405180910390a450505050565b6000600460008473ffffffffffffffffffffffffffffffffffffffff1673ffffffffffffffffffffffffffffffffffffffff168152602001908152602001600020600083815260200190815260200160002090508060010160009054906101000a900473ffffffffffffffffffffffffffffffffffffffff1673ffffffffffffffffffffffffffffffffffffffff163373ffffffffffffffffffffffffffffffffffffffff1614612ce8576040517f4bb90d2600000000000000000000000000000000000000000000000000000000815260040160405180910390fd5b60018160040160006101000a81548160ff02191690831515021790555060008160040160026101000a81548160ff021916908315150217905550600460008473ffffffffffffffffffffffffffffffffffffffff1673ffffffffffffffffffffffffffffffffffffffff16815260200190815260200160002060008381526020019081526020016000206000808201600090556001820160006101000a81549073ffffffffffffffffffffffffffffffffffffffff0219169055600282016000905560038201600090556004820160006101000a81549060ff02191690556004820160016101000a81549060ff02191690556004820160026101000a81549060ff02191690555050612dfa8383613c2f565b818373ffffffffffffffffffffffffffffffffffffffff168260010160009054906101000a900473ffffffffffffffffffffffffffffffffffffffff1673ffffffffffffffffffffffffffffffffffffffff167f9ba1a3cb55ce8d63d072a886f94d2a744f50cddf82128e897d0661f5ec62315860405160405180910390a4505050565b6000600660008673ffffffffffffffffffffffffffffffffffffffff1673ffffffffffffffffffffffffffffffffffffffff16815260200190815260200160002060008581526020019081526020016000209050600015158160060160009054906101000a900460ff16151514612f2a576040517f08c379a0000000000000000000000000000000000000000000000000000000008152600401612f2190614980565b60405180910390fd5b600073ffffffffffffffffffffffffffffffffffffffff168160000160009054906101000a900473ffffffffffffffffffffffffffffffffffffffff1673ffffffffffffffffffffffffffffffffffffffff1603612fbd576040517f08c379a0000000000000000000000000000000000000000000000000000000008152600401612fb4906149ec565b60405180910390fd5b612fc78585610ba0565b806004015442101561324d57818160030154108015612fea575081816001015411155b613029576040517f08c379a000000000000000000000000000000000000000000000000000000000815260040161302090614a58565b60405180910390fd5b8060000160009054906101000a900473ffffffffffffffffffffffffffffffffffffffff1673ffffffffffffffffffffffffffffffffffffffff163373ffffffffffffffffffffffffffffffffffffffff16036130bb576040517f08c379a00000000000000000000000000000000000000000000000000000000081526004016130b290614aea565b60405180910390fd5b818373ffffffffffffffffffffffffffffffffffffffff166370a08231336040518263ffffffff1660e01b81526004016130f59190614101565b602060405180830381865afa158015613112573d6000803e3d6000fd5b505050506040513d601f19601f82011682018060405250810190613136919061432c565b1015613177576040517f08c379a000000000000000000000000000000000000000000000000000000000815260040161316e906143a5565b60405180910390fd5b60008373ffffffffffffffffffffffffffffffffffffffff1663dd62ed3e33306040518363ffffffff1660e01b81526004016131b49291906143c5565b602060405180830381865afa1580156131d1573d6000803e3d6000fd5b505050506040513d601f19601f820116820180604052508101906131f5919061432c565b905082811061324b57338260020160006101000a81548173ffffffffffffffffffffffffffffffffffffffff021916908373ffffffffffffffffffffffffffffffffffffffff1602179055508282600301819055505b505b5050505050565b6060600760008373ffffffffffffffffffffffffffffffffffffffff1673ffffffffffffffffffffffffffffffffffffffff1681526020019081526020016000208054806020026020016040519081016040528092919081815260200182805480156132df57602002820191906000526020600020905b8154815260200190600101908083116132cb575b50505050509050919050565b6000600380549050905090565b600080600660008573ffffffffffffffffffffffffffffffffffffffff1673ffffffffffffffffffffffffffffffffffffffff1681526020019081526020016000206000848152602001908152602001600020604051806101000160405290816000820160009054906101000a900473ffffffffffffffffffffffffffffffffffffffff1673ffffffffffffffffffffffffffffffffffffffff1673ffffffffffffffffffffffffffffffffffffffff168152602001600182015481526020016002820160009054906101000a900473ffffffffffffffffffffffffffffffffffffffff1673ffffffffffffffffffffffffffffffffffffffff1673ffffffffffffffffffffffffffffffffffffffff1681526020016003820154815260200160048201548152602001600582015481526020016006820160009054906101000a900460ff161515151581526020016006820160019054906101000a900460ff1615151515815250509050600073ffffffffffffffffffffffffffffffffffffffff16816000015173ffffffffffffffffffffffffffffffffffffffff16036134d6576040517f08c379a00000000000000000000000000000000000000000000000000000000081526004016134cd90614b7c565b60405180910390fd5b8060c0015191505092915050565b600080600660008573ffffffffffffffffffffffffffffffffffffffff1673ffffffffffffffffffffffffffffffffffffffff1681526020019081526020016000206000848152602001908152602001600020604051806101000160405290816000820160009054906101000a900473ffffffffffffffffffffffffffffffffffffffff1673ffffffffffffffffffffffffffffffffffffffff1673ffffffffffffffffffffffffffffffffffffffff168152602001600182015481526020016002820160009054906101000a900473ffffffffffffffffffffffffffffffffffffffff1673ffffffffffffffffffffffffffffffffffffffff1673ffffffffffffffffffffffffffffffffffffffff1681526020016003820154815260200160048201548152602001600582015481526020016006820160009054906101000a900460ff161515151581526020016006820160019054906101000a900460ff1615151515815250509050806080015191505092915050565b600060011515600660008573ffffffffffffffffffffffffffffffffffffffff1673ffffffffffffffffffffffffffffffffffffffff168152602001908152602001600020600084815260200190815260200160002060060160019054906101000a900460ff161515036136d457600190506136d9565b600090505b92915050565b600381815481106136ef57600080fd5b906000526020600020016000915054906101000a900473ffffffffffffffffffffffffffffffffffffffff1681565b6007602052816000526040600020818154811061373a57600080fd5b90600052602060002001600091509150505481565b60011515600460008673ffffffffffffffffffffffffffffffffffffffff1673ffffffffffffffffffffffffffffffffffffffff168152602001908152602001600020600085815260200190815260200160002060040160029054906101000a900460ff161515036137ed576040517f90c2044b00000000000000000000000000000000000000000000000000000000815260040160405180910390fd5b3073ffffffffffffffffffffffffffffffffffffffff168473ffffffffffffffffffffffffffffffffffffffff1663081812fc856040518263ffffffff1660e01b815260040161383d9190613fbd565b602060405180830381865afa15801561385a573d6000803e3d6000fd5b505050506040513d601f19601f8201168201806040525081019061387e919061446f565b73ffffffffffffffffffffffffffffffffffffffff16146138cb576040517f51a4971800000000000000000000000000000000000000000000000000000000815260040160405180910390fd5b600160008154809291906138de906144cb565b91905055506040518060e001604052808381526020013373ffffffffffffffffffffffffffffffffffffffff16815260200142815260200182815260200160001515815260200160001515815260200160011515815250600460008673ffffffffffffffffffffffffffffffffffffffff1673ffffffffffffffffffffffffffffffffffffffff16815260200190815260200160002060008581526020019081526020016000206000820151816000015560208201518160010160006101000a81548173ffffffffffffffffffffffffffffffffffffffff021916908373ffffffffffffffffffffffffffffffffffffffff160217905550604082015181600201556060820151816003015560808201518160040160006101000a81548160ff02191690831515021790555060a08201518160040160016101000a81548160ff02191690831515021790555060c08201518160040160026101000a81548160ff021916908315150217905550905050600080600090505b600380549050811015613aeb578573ffffffffffffffffffffffffffffffffffffffff1660038281548110613a8d57613a8c6145c3565b5b9060005260206000200160009054906101000a900473ffffffffffffffffffffffffffffffffffffffff1673ffffffffffffffffffffffffffffffffffffffff1603613ad857600191505b8080613ae3906144cb565b915050613a55565b506000151581151503613b5c576003859080600181540180825580915050600190039060005260206000200160009091909190916101000a81548173ffffffffffffffffffffffffffffffffffffffff021916908373ffffffffffffffffffffffffffffffffffffffff1602179055505b600760008673ffffffffffffffffffffffffffffffffffffffff1673ffffffffffffffffffffffffffffffffffffffff168152602001908152602001600020849080600181540180825580915050600190039060005260206000200160009091909190915055838573ffffffffffffffffffffffffffffffffffffffff163373ffffffffffffffffffffffffffffffffffffffff167fd547e933094f12a9159076970143ebe73234e64480317844b0dcb36117116de486604051613c209190613fbd565b60405180910390a45050505050565b600080600760008573ffffffffffffffffffffffffffffffffffffffff1673ffffffffffffffffffffffffffffffffffffffff168152602001908152602001600020905060005b8180549050811015613cbd5783828281548110613c9657613c956145c3565b5b906000526020600020015403613caa578092505b8080613cb5906144cb565b915050613c76565b5060008180549050905060008390505b600182613cda9190614b9c565b811015613d3f5782600185613cef919061456d565b81548110613d0057613cff6145c3565b5b9060005260206000200154838581548110613d1e57613d1d6145c3565b5b90600052602060002001819055508080613d37906144cb565b915050613ccd565b5081805480613d5157613d50614bd0565b5b600190038181906000526020600020016000905590555050505050565b600080fd5b600073ffffffffffffffffffffffffffffffffffffffff82169050919050565b6000613d9e82613d73565b9050919050565b613dae81613d93565b8114613db957600080fd5b50565b600081359050613dcb81613da5565b92915050565b6000819050919050565b613de481613dd1565b8114613def57600080fd5b50565b600081359050613e0181613ddb565b92915050565b60008060408385031215613e1e57613e1d613d6e565b5b6000613e2c85828601613dbc565b9250506020613e3d85828601613df2565b9150509250929050565b613e5081613dd1565b82525050565b613e5f81613d93565b82525050565b6000606082019050613e7a6000830186613e47565b613e876020830185613e56565b613e946040830184613e56565b949350505050565b60008060008060808587031215613eb657613eb5613d6e565b5b6000613ec487828801613dbc565b9450506020613ed587828801613df2565b9350506040613ee687828801613dbc565b9250506060613ef787828801613df2565b91505092959194509250565b6000613f0e82613d73565b9050919050565b613f1e81613f03565b82525050565b60008115159050919050565b613f3981613f24565b82525050565b600061010082019050613f55600083018b613f15565b613f62602083018a613e47565b613f6f6040830189613e56565b613f7c6060830188613e47565b613f896080830187613e47565b613f9660a0830186613e47565b613fa360c0830185613f30565b613fb060e0830184613f30565b9998505050505050505050565b6000602082019050613fd26000830184613e47565b92915050565b60008060008060808587031215613ff257613ff1613d6e565b5b600061400087828801613dbc565b945050602061401187828801613df2565b935050604061402287828801613df2565b925050606061403387828801613df2565b91505092959194509250565b60008060006060848603121561405857614057613d6e565b5b600061406686828701613dbc565b935050602061407786828701613df2565b925050604061408886828701613dbc565b9150509250925092565b600060e0820190506140a7600083018a613e47565b6140b46020830189613f15565b6140c16040830188613e47565b6140ce6060830187613e47565b6140db6080830186613f30565b6140e860a0830185613f30565b6140f560c0830184613f30565b98975050505050505050565b60006020820190506141166000830184613e56565b92915050565b60006040820190506141316000830185613e47565b61413e6020830184613e56565b9392505050565b60006020828403121561415b5761415a613d6e565b5b600061416984828501613dbc565b91505092915050565b600081519050919050565b600082825260208201905092915050565b6000819050602082019050919050565b6141a781613dd1565b82525050565b60006141b9838361419e565b60208301905092915050565b6000602082019050919050565b60006141dd82614172565b6141e7818561417d565b93506141f28361418e565b8060005b8381101561422357815161420a88826141ad565b9750614215836141c5565b9250506001810190506141f6565b5085935050505092915050565b6000602082019050818103600083015261424a81846141d2565b905092915050565b60006020820190506142676000830184613f30565b92915050565b60006020828403121561428357614282613d6e565b5b600061429184828501613df2565b91505092915050565b600082825260208201905092915050565b7f706c6561736520696e63726561736520796f7572206f66666572200000000000600082015250565b60006142e1601b8361429a565b91506142ec826142ab565b602082019050919050565b60006020820190508181036000830152614310816142d4565b9050919050565b60008151905061432681613ddb565b92915050565b60006020828403121561434257614341613d6e565b5b600061435084828501614317565b91505092915050565b7f796f7520446f6e7420486176652042616c616e63650000000000000000000000600082015250565b600061438f60158361429a565b915061439a82614359565b602082019050919050565b600060208201905081810360008301526143be81614382565b9050919050565b60006040820190506143da6000830185613e56565b6143e76020830184613e56565b9392505050565b7f546869732061756374696f6e2068617320456e64656400000000000000000000600082015250565b600061442460168361429a565b915061442f826143ee565b602082019050919050565b6000602082019050818103600083015261445381614417565b9050919050565b60008151905061446981613da5565b92915050565b60006020828403121561448557614484613d6e565b5b60006144938482850161445a565b91505092915050565b7f4e487b7100000000000000000000000000000000000000000000000000000000600052601160045260246000fd5b60006144d682613dd1565b91507fffffffffffffffffffffffffffffffffffffffffffffffffffffffffffffffff82036145085761450761449c565b5b600182019050919050565b600061451e82613dd1565b915061452983613dd1565b9250817fffffffffffffffffffffffffffffffffffffffffffffffffffffffffffffffff04831182151516156145625761456161449c565b5b828202905092915050565b600061457882613dd1565b915061458383613dd1565b9250827fffffffffffffffffffffffffffffffffffffffffffffffffffffffffffffffff038211156145b8576145b761449c565b5b828201905092915050565b7f4e487b7100000000000000000000000000000000000000000000000000000000600052603260045260246000fd5b7f596f7520617265206e6f74204f776e6572206f662074686973204e4654000000600082015250565b6000614628601d8361429a565b9150614633826145f2565b602082019050919050565b600060208201905081810360008301526146578161461b565b9050919050565b7f41756374696f6e2054696d652072656d61696e696e6700000000000000000000600082015250565b600061469460168361429a565b915061469f8261465e565b602082019050919050565b600060208201905081810360008301526146c381614687565b9050919050565b7f596f7520617265206e6f7420617574686f72697a656420746f20636f6e636c7560008201527f6465207468652061756374696f6e000000000000000000000000000000000000602082015250565b6000614726602e8361429a565b9150614731826146ca565b604082019050919050565b6000602082019050818103600083015261475581614719565b9050919050565b6000819050919050565b600061478161477c61477784613d73565b61475c565b613d73565b9050919050565b600061479382614766565b9050919050565b60006147a582614788565b9050919050565b6147b58161479a565b82525050565b60006060820190506147d060008301866147ac565b6147dd6020830185613e56565b6147ea6040830184613e47565b949350505050565b60006060820190506148076000830186613e56565b61481460208301856147ac565b6148216040830184613e47565b949350505050565b61483281613f24565b811461483d57600080fd5b50565b60008151905061484f81614829565b92915050565b60006020828403121561486b5761486a613d6e565b5b600061487984828501614840565b91505092915050565b600081905092915050565b50565b600061489d600083614882565b91506148a88261488d565b600082019050919050565b60006148be82614890565b9150819050919050565b7f796f7520617265204e6f74206f776e6572000000000000000000000000000000600082015250565b60006148fe60118361429a565b9150614909826148c8565b602082019050919050565b6000602082019050818103600083015261492d816148f1565b9050919050565b7f41756374696f6e2068617320656e646564000000000000000000000000000000600082015250565b600061496a60118361429a565b915061497582614934565b602082019050919050565b600060208201905081810360008301526149998161495d565b9050919050565b7f41756374696f6e20646f6573206e6f7420657869737400000000000000000000600082015250565b60006149d660168361429a565b91506149e1826149a0565b602082019050919050565b60006020820190508181036000830152614a05816149c9565b9050919050565b7f506c656173652073656e64206d6f72652066756e647300000000000000000000600082015250565b6000614a4260168361429a565b9150614a4d82614a0c565b602082019050919050565b60006020820190508181036000830152614a7181614a35565b9050919050565b7f596f752063616e6e6f742062696420696e20796f7572206f776e20617563746960008201527f6f6e000000000000000000000000000000000000000000000000000000000000602082015250565b6000614ad460228361429a565b9150614adf82614a78565b604082019050919050565b60006020820190508181036000830152614b0381614ac7565b9050919050565b7f41756374696f6e20666f722074686973204e4654206973206e6f7420696e207060008201527f726f677265737300000000000000000000000000000000000000000000000000602082015250565b6000614b6660278361429a565b9150614b7182614b0a565b604082019050919050565b60006020820190508181036000830152614b9581614b59565b9050919050565b6000614ba782613dd1565b9150614bb283613dd1565b925082821015614bc557614bc461449c565b5b828203905092915050565b7f4e487b7100000000000000000000000000000000000000000000000000000000600052603160045260246000fdfea2646970667358221220cc0519fe94678c2413fbd9be773a09993b8ab7151b56589a678d40e710b9680264736f6c634300080e0033",
  "linkReferences": {},
  "deployedLinkReferences": {}
}