{
  "_format": "hh-sol-artifact-1",
  "contractName": "NFT",
  "sourceName": "contracts/NFT.sol",
  "abi": [
    {
      "inputs": [],
      "stateMutability": "nonpayable",
      "type": "constructor"
    },
    {
      "anonymous": false,
      "inputs": [
        {
          "indexed": true,
          "internalType": "address",
          "name": "owner",
          "type": "address"
        },
        {
          "indexed": true,
          "internalType": "address",
          "name": "approved",
          "type": "address"
        },
        {
          "indexed": true,
          "internalType": "uint256",
          "name": "tokenId",
          "type": "uint256"
        }
      ],
      "name": "Approval",
      "type": "event"
    },
    {
      "anonymous": false,
      "inputs": [
        {
          "indexed": true,
          "internalType": "address",
          "name": "owner",
          "type": "address"
        },
        {
          "indexed": true,
          "internalType": "address",
          "name": "operator",
          "type": "address"
        },
        {
          "indexed": false,
          "internalType": "bool",
          "name": "approved",
          "type": "bool"
        }
      ],
      "name": "ApprovalForAll",
      "type": "event"
    },
    {
      "anonymous": false,
      "inputs": [
        {
          "indexed": true,
          "internalType": "address",
          "name": "previousOwner",
          "type": "address"
        },
        {
          "indexed": true,
          "internalType": "address",
          "name": "newOwner",
          "type": "address"
        }
      ],
      "name": "OwnershipTransferred",
      "type": "event"
    },
    {
      "anonymous": false,
      "inputs": [
        {
          "indexed": true,
          "internalType": "address",
          "name": "from",
          "type": "address"
        },
        {
          "indexed": true,
          "internalType": "address",
          "name": "to",
          "type": "address"
        },
        {
          "indexed": true,
          "internalType": "uint256",
          "name": "tokenId",
          "type": "uint256"
        }
      ],
      "name": "Transfer",
      "type": "event"
    },
    {
      "inputs": [],
      "name": "_tokenIdCounter",
      "outputs": [
        {
          "internalType": "uint256",
          "name": "_value",
          "type": "uint256"
        }
      ],
      "stateMutability": "view",
      "type": "function"
    },
    {
      "inputs": [
        {
          "internalType": "address",
          "name": "to",
          "type": "address"
        },
        {
          "internalType": "uint256",
          "name": "tokenId",
          "type": "uint256"
        }
      ],
      "name": "approve",
      "outputs": [],
      "stateMutability": "nonpayable",
      "type": "function"
    },
    {
      "inputs": [
        {
          "internalType": "address",
          "name": "owner",
          "type": "address"
        }
      ],
      "name": "balanceOf",
      "outputs": [
        {
          "internalType": "uint256",
          "name": "",
          "type": "uint256"
        }
      ],
      "stateMutability": "view",
      "type": "function"
    },
    {
      "inputs": [
        {
          "internalType": "uint256",
          "name": "tokenId",
          "type": "uint256"
        }
      ],
      "name": "getApproved",
      "outputs": [
        {
          "internalType": "address",
          "name": "",
          "type": "address"
        }
      ],
      "stateMutability": "view",
      "type": "function"
    },
    {
      "inputs": [
        {
          "internalType": "address",
          "name": "owner",
          "type": "address"
        },
        {
          "internalType": "address",
          "name": "operator",
          "type": "address"
        }
      ],
      "name": "isApprovedForAll",
      "outputs": [
        {
          "internalType": "bool",
          "name": "",
          "type": "bool"
        }
      ],
      "stateMutability": "view",
      "type": "function"
    },
    {
      "inputs": [],
      "name": "name",
      "outputs": [
        {
          "internalType": "string",
          "name": "",
          "type": "string"
        }
      ],
      "stateMutability": "view",
      "type": "function"
    },
    {
      "inputs": [],
      "name": "owner",
      "outputs": [
        {
          "internalType": "address",
          "name": "",
          "type": "address"
        }
      ],
      "stateMutability": "view",
      "type": "function"
    },
    {
      "inputs": [
        {
          "internalType": "uint256",
          "name": "tokenId",
          "type": "uint256"
        }
      ],
      "name": "ownerOf",
      "outputs": [
        {
          "internalType": "address",
          "name": "",
          "type": "address"
        }
      ],
      "stateMutability": "view",
      "type": "function"
    },
    {
      "inputs": [],
      "name": "renounceOwnership",
      "outputs": [],
      "stateMutability": "nonpayable",
      "type": "function"
    },
    {
      "inputs": [
        {
          "internalType": "string",
          "name": "uri",
          "type": "string"
        }
      ],
      "name": "safeMint",
      "outputs": [],
      "stateMutability": "nonpayable",
      "type": "function"
    },
    {
      "inputs": [
        {
          "internalType": "address",
          "name": "from",
          "type": "address"
        },
        {
          "internalType": "address",
          "name": "to",
          "type": "address"
        },
        {
          "internalType": "uint256",
          "name": "tokenId",
          "type": "uint256"
        }
      ],
      "name": "safeTransferFrom",
      "outputs": [],
      "stateMutability": "nonpayable",
      "type": "function"
    },
    {
      "inputs": [
        {
          "internalType": "address",
          "name": "from",
          "type": "address"
        },
        {
          "internalType": "address",
          "name": "to",
          "type": "address"
        },
        {
          "internalType": "uint256",
          "name": "tokenId",
          "type": "uint256"
        },
        {
          "internalType": "bytes",
          "name": "data",
          "type": "bytes"
        }
      ],
      "name": "safeTransferFrom",
      "outputs": [],
      "stateMutability": "nonpayable",
      "type": "function"
    },
    {
      "inputs": [
        {
          "internalType": "address",
          "name": "operator",
          "type": "address"
        },
        {
          "internalType": "bool",
          "name": "approved",
          "type": "bool"
        }
      ],
      "name": "setApprovalForAll",
      "outputs": [],
      "stateMutability": "nonpayable",
      "type": "function"
    },
    {
      "inputs": [
        {
          "internalType": "bytes4",
          "name": "interfaceId",
          "type": "bytes4"
        }
      ],
      "name": "supportsInterface",
      "outputs": [
        {
          "internalType": "bool",
          "name": "",
          "type": "bool"
        }
      ],
      "stateMutability": "view",
      "type": "function"
    },
    {
      "inputs": [],
      "name": "symbol",
      "outputs": [
        {
          "internalType": "string",
          "name": "",
          "type": "string"
        }
      ],
      "stateMutability": "view",
      "type": "function"
    },
    {
      "inputs": [
        {
          "internalType": "uint256",
          "name": "tokenId",
          "type": "uint256"
        }
      ],
      "name": "tokenURI",
      "outputs": [
        {
          "internalType": "string",
          "name": "",
          "type": "string"
        }
      ],
      "stateMutability": "view",
      "type": "function"
    },
    {
      "inputs": [
        {
          "internalType": "address",
          "name": "from",
          "type": "address"
        },
        {
          "internalType": "address",
          "name": "to",
          "type": "address"
        },
        {
          "internalType": "uint256",
          "name": "tokenId",
          "type": "uint256"
        }
      ],
      "name": "transferFrom",
      "outputs": [],
      "stateMutability": "nonpayable",
      "type": "function"
    },
    {
      "inputs": [
        {
          "internalType": "address",
          "name": "newOwner",
          "type": "address"
        }
      ],
      "name": "transferOwnership",
      "outputs": [],
      "stateMutability": "nonpayable",
      "type": "function"
    }
  ],
  "bytecode": "0x60806040523480156200001157600080fd5b506040518060400160405280600781526020017f4d79546f6b656e000000000000000000000000000000000000000000000000008152506040518060400160405280600381526020017f4d544b0000000000000000000000000000000000000000000000000000000000815250816000908051906020019062000096929190620001a6565b508060019080519060200190620000af929190620001a6565b505050620000d2620000c6620000d860201b60201c565b620000e060201b60201c565b620002ba565b600033905090565b6000600760009054906101000a900473ffffffffffffffffffffffffffffffffffffffff16905081600760006101000a81548173ffffffffffffffffffffffffffffffffffffffff021916908373ffffffffffffffffffffffffffffffffffffffff1602179055508173ffffffffffffffffffffffffffffffffffffffff168173ffffffffffffffffffffffffffffffffffffffff167f8be0079c531659141344cd1fd0a4f28419497f9722a3daafe3b4186f6b6457e060405160405180910390a35050565b828054620001b49062000285565b90600052602060002090601f016020900481019282620001d8576000855562000224565b82601f10620001f357805160ff191683800117855562000224565b8280016001018555821562000224579182015b828111156200022357825182559160200191906001019062000206565b5b50905062000233919062000237565b5090565b5b808211156200025257600081600090555060010162000238565b5090565b7f4e487b7100000000000000000000000000000000000000000000000000000000600052602260045260246000fd5b600060028204905060018216806200029e57607f821691505b602082108103620002b457620002b362000256565b5b50919050565b612e5780620002ca6000396000f3fe608060405234801561001057600080fd5b50600436106101165760003560e01c8063715018a6116100a2578063a22cb46511610071578063a22cb465146102cd578063b88d4fde146102e9578063c87b56dd14610305578063e985e9c514610335578063f2fde38b1461036557610116565b8063715018a61461026957806384c4bd4b146102735780638da5cb5b1461029157806395d89b41146102af57610116565b806323b872dd116100e957806323b872dd146101b557806342842e0e146101d15780636352211e146101ed578063695850fb1461021d57806370a082311461023957610116565b806301ffc9a71461011b57806306fdde031461014b578063081812fc14610169578063095ea7b314610199575b600080fd5b61013560048036038101906101309190611e17565b610381565b6040516101429190611e5f565b60405180910390f35b610153610463565b6040516101609190611f13565b60405180910390f35b610183600480360381019061017e9190611f6b565b6104f5565b6040516101909190611fd9565b60405180910390f35b6101b360048036038101906101ae9190612020565b61053b565b005b6101cf60048036038101906101ca9190612060565b610652565b005b6101eb60048036038101906101e69190612060565b6106b2565b005b61020760048036038101906102029190611f6b565b6106d2565b6040516102149190611fd9565b60405180910390f35b610237600480360381019061023291906121e8565b610758565b005b610253600480360381019061024e9190612231565b610790565b604051610260919061226d565b60405180910390f35b610271610847565b005b61027b61085b565b604051610288919061226d565b60405180910390f35b610299610867565b6040516102a69190611fd9565b60405180910390f35b6102b7610891565b6040516102c49190611f13565b60405180910390f35b6102e760048036038101906102e291906122b4565b610923565b005b61030360048036038101906102fe9190612395565b610939565b005b61031f600480360381019061031a9190611f6b565b61099b565b60405161032c9190611f13565b60405180910390f35b61034f600480360381019061034a9190612418565b6109ad565b60405161035c9190611e5f565b60405180910390f35b61037f600480360381019061037a9190612231565b610a41565b005b60007f80ac58cd000000000000000000000000000000000000000000000000000000007bffffffffffffffffffffffffffffffffffffffffffffffffffffffff1916827bffffffffffffffffffffffffffffffffffffffffffffffffffffffff1916148061044c57507f5b5e139f000000000000000000000000000000000000000000000000000000007bffffffffffffffffffffffffffffffffffffffffffffffffffffffff1916827bffffffffffffffffffffffffffffffffffffffffffffffffffffffff1916145b8061045c575061045b82610ac4565b5b9050919050565b60606000805461047290612487565b80601f016020809104026020016040519081016040528092919081815260200182805461049e90612487565b80156104eb5780601f106104c0576101008083540402835291602001916104eb565b820191906000526020600020905b8154815290600101906020018083116104ce57829003601f168201915b5050505050905090565b600061050082610b2e565b6004600083815260200190815260200160002060009054906101000a900473ffffffffffffffffffffffffffffffffffffffff169050919050565b6000610546826106d2565b90508073ffffffffffffffffffffffffffffffffffffffff168373ffffffffffffffffffffffffffffffffffffffff16036105b6576040517f08c379a00000000000000000000000000000000000000000000000000000000081526004016105ad9061252a565b60405180910390fd5b8073ffffffffffffffffffffffffffffffffffffffff166105d5610b79565b73ffffffffffffffffffffffffffffffffffffffff1614806106045750610603816105fe610b79565b6109ad565b5b610643576040517f08c379a000000000000000000000000000000000000000000000000000000000815260040161063a906125bc565b60405180910390fd5b61064d8383610b81565b505050565b61066361065d610b79565b82610c3a565b6106a2576040517f08c379a00000000000000000000000000000000000000000000000000000000081526004016106999061264e565b60405180910390fd5b6106ad838383610ccf565b505050565b6106cd83838360405180602001604052806000815250610939565b505050565b6000806106de83610fc8565b9050600073ffffffffffffffffffffffffffffffffffffffff168173ffffffffffffffffffffffffffffffffffffffff160361074f576040517f08c379a0000000000000000000000000000000000000000000000000000000008152600401610746906126ba565b60405180910390fd5b80915050919050565b610760611005565b600061076c6008611083565b90506107786008611091565b61078233826110a7565b61078c81836110c5565b5050565b60008073ffffffffffffffffffffffffffffffffffffffff168273ffffffffffffffffffffffffffffffffffffffff1603610800576040517f08c379a00000000000000000000000000000000000000000000000000000000081526004016107f79061274c565b60405180910390fd5b600360008373ffffffffffffffffffffffffffffffffffffffff1673ffffffffffffffffffffffffffffffffffffffff168152602001908152602001600020549050919050565b61084f611005565b6108596000611139565b565b60088060000154905081565b6000600760009054906101000a900473ffffffffffffffffffffffffffffffffffffffff16905090565b6060600180546108a090612487565b80601f01602080910402602001604051908101604052809291908181526020018280546108cc90612487565b80156109195780601f106108ee57610100808354040283529160200191610919565b820191906000526020600020905b8154815290600101906020018083116108fc57829003601f168201915b5050505050905090565b61093561092e610b79565b83836111ff565b5050565b61094a610944610b79565b83610c3a565b610989576040517f08c379a00000000000000000000000000000000000000000000000000000000081526004016109809061264e565b60405180910390fd5b6109958484848461136b565b50505050565b60606109a6826113c7565b9050919050565b6000600560008473ffffffffffffffffffffffffffffffffffffffff1673ffffffffffffffffffffffffffffffffffffffff16815260200190815260200160002060008373ffffffffffffffffffffffffffffffffffffffff1673ffffffffffffffffffffffffffffffffffffffff16815260200190815260200160002060009054906101000a900460ff16905092915050565b610a49611005565b600073ffffffffffffffffffffffffffffffffffffffff168173ffffffffffffffffffffffffffffffffffffffff1603610ab8576040517f08c379a0000000000000000000000000000000000000000000000000000000008152600401610aaf906127de565b60405180910390fd5b610ac181611139565b50565b60007f01ffc9a7000000000000000000000000000000000000000000000000000000007bffffffffffffffffffffffffffffffffffffffffffffffffffffffff1916827bffffffffffffffffffffffffffffffffffffffffffffffffffffffff1916149050919050565b610b37816114d9565b610b76576040517f08c379a0000000000000000000000000000000000000000000000000000000008152600401610b6d906126ba565b60405180910390fd5b50565b600033905090565b816004600083815260200190815260200160002060006101000a81548173ffffffffffffffffffffffffffffffffffffffff021916908373ffffffffffffffffffffffffffffffffffffffff160217905550808273ffffffffffffffffffffffffffffffffffffffff16610bf4836106d2565b73ffffffffffffffffffffffffffffffffffffffff167f8c5be1e5ebec7d5bd14f71427d1e84f3dd0314c0f7b2291e5b200ac8c7c3b92560405160405180910390a45050565b600080610c46836106d2565b90508073ffffffffffffffffffffffffffffffffffffffff168473ffffffffffffffffffffffffffffffffffffffff161480610c885750610c8781856109ad565b5b80610cc657508373ffffffffffffffffffffffffffffffffffffffff16610cae846104f5565b73ffffffffffffffffffffffffffffffffffffffff16145b91505092915050565b8273ffffffffffffffffffffffffffffffffffffffff16610cef826106d2565b73ffffffffffffffffffffffffffffffffffffffff1614610d45576040517f08c379a0000000000000000000000000000000000000000000000000000000008152600401610d3c90612870565b60405180910390fd5b600073ffffffffffffffffffffffffffffffffffffffff168273ffffffffffffffffffffffffffffffffffffffff1603610db4576040517f08c379a0000000000000000000000000000000000000000000000000000000008152600401610dab90612902565b60405180910390fd5b610dc1838383600161151a565b8273ffffffffffffffffffffffffffffffffffffffff16610de1826106d2565b73ffffffffffffffffffffffffffffffffffffffff1614610e37576040517f08c379a0000000000000000000000000000000000000000000000000000000008152600401610e2e90612870565b60405180910390fd5b6004600082815260200190815260200160002060006101000a81549073ffffffffffffffffffffffffffffffffffffffff02191690556001600360008573ffffffffffffffffffffffffffffffffffffffff1673ffffffffffffffffffffffffffffffffffffffff168152602001908152602001600020600082825403925050819055506001600360008473ffffffffffffffffffffffffffffffffffffffff1673ffffffffffffffffffffffffffffffffffffffff16815260200190815260200160002060008282540192505081905550816002600083815260200190815260200160002060006101000a81548173ffffffffffffffffffffffffffffffffffffffff021916908373ffffffffffffffffffffffffffffffffffffffff160217905550808273ffffffffffffffffffffffffffffffffffffffff168473ffffffffffffffffffffffffffffffffffffffff167fddf252ad1be2c89b69c2b068fc378daa952ba7f163c4a11628f55a4df523b3ef60405160405180910390a4610fc38383836001611640565b505050565b60006002600083815260200190815260200160002060009054906101000a900473ffffffffffffffffffffffffffffffffffffffff169050919050565b61100d610b79565b73ffffffffffffffffffffffffffffffffffffffff1661102b610867565b73ffffffffffffffffffffffffffffffffffffffff1614611081576040517f08c379a00000000000000000000000000000000000000000000000000000000081526004016110789061296e565b60405180910390fd5b565b600081600001549050919050565b6001816000016000828254019250508190555050565b6110c1828260405180602001604052806000815250611646565b5050565b6110ce826114d9565b61110d576040517f08c379a000000000000000000000000000000000000000000000000000000000815260040161110490612a00565b60405180910390fd5b80600660008481526020019081526020016000209080519060200190611134929190611d08565b505050565b6000600760009054906101000a900473ffffffffffffffffffffffffffffffffffffffff16905081600760006101000a81548173ffffffffffffffffffffffffffffffffffffffff021916908373ffffffffffffffffffffffffffffffffffffffff1602179055508173ffffffffffffffffffffffffffffffffffffffff168173ffffffffffffffffffffffffffffffffffffffff167f8be0079c531659141344cd1fd0a4f28419497f9722a3daafe3b4186f6b6457e060405160405180910390a35050565b8173ffffffffffffffffffffffffffffffffffffffff168373ffffffffffffffffffffffffffffffffffffffff160361126d576040517f08c379a000000000000000000000000000000000000000000000000000000000815260040161126490612a6c565b60405180910390fd5b80600560008573ffffffffffffffffffffffffffffffffffffffff1673ffffffffffffffffffffffffffffffffffffffff16815260200190815260200160002060008473ffffffffffffffffffffffffffffffffffffffff1673ffffffffffffffffffffffffffffffffffffffff16815260200190815260200160002060006101000a81548160ff0219169083151502179055508173ffffffffffffffffffffffffffffffffffffffff168373ffffffffffffffffffffffffffffffffffffffff167f17307eab39ab6107e8899845ad3d59bd9653f200f220920489ca2b5937696c318360405161135e9190611e5f565b60405180910390a3505050565b611376848484610ccf565b611382848484846116a1565b6113c1576040517f08c379a00000000000000000000000000000000000000000000000000000000081526004016113b890612afe565b60405180910390fd5b50505050565b60606113d282610b2e565b60006006600084815260200190815260200160002080546113f290612487565b80601f016020809104026020016040519081016040528092919081815260200182805461141e90612487565b801561146b5780601f106114405761010080835404028352916020019161146b565b820191906000526020600020905b81548152906001019060200180831161144e57829003601f168201915b50505050509050600061147c611828565b905060008151036114915781925050506114d4565b6000825111156114c65780826040516020016114ae929190612b5a565b604051602081830303815290604052925050506114d4565b6114cf8461183f565b925050505b919050565b60008073ffffffffffffffffffffffffffffffffffffffff166114fb83610fc8565b73ffffffffffffffffffffffffffffffffffffffff1614159050919050565b600181111561163a57600073ffffffffffffffffffffffffffffffffffffffff168473ffffffffffffffffffffffffffffffffffffffff16146115ae5780600360008673ffffffffffffffffffffffffffffffffffffffff1673ffffffffffffffffffffffffffffffffffffffff16815260200190815260200160002060008282546115a69190612bad565b925050819055505b600073ffffffffffffffffffffffffffffffffffffffff168373ffffffffffffffffffffffffffffffffffffffff16146116395780600360008573ffffffffffffffffffffffffffffffffffffffff1673ffffffffffffffffffffffffffffffffffffffff16815260200190815260200160002060008282546116319190612be1565b925050819055505b5b50505050565b50505050565b61165083836118a7565b61165d60008484846116a1565b61169c576040517f08c379a000000000000000000000000000000000000000000000000000000000815260040161169390612afe565b60405180910390fd5b505050565b60006116c28473ffffffffffffffffffffffffffffffffffffffff16611ac4565b1561181b578373ffffffffffffffffffffffffffffffffffffffff1663150b7a026116eb610b79565b8786866040518563ffffffff1660e01b815260040161170d9493929190612c8c565b6020604051808303816000875af192505050801561174957506040513d601f19601f820116820180604052508101906117469190612ced565b60015b6117cb573d8060008114611779576040519150601f19603f3d011682016040523d82523d6000602084013e61177e565b606091505b5060008151036117c3576040517f08c379a00000000000000000000000000000000000000000000000000000000081526004016117ba90612afe565b60405180910390fd5b805181602001fd5b63150b7a0260e01b7bffffffffffffffffffffffffffffffffffffffffffffffffffffffff1916817bffffffffffffffffffffffffffffffffffffffffffffffffffffffff191614915050611820565b600190505b949350505050565b606060405180602001604052806000815250905090565b606061184a82610b2e565b6000611854611828565b90506000815111611874576040518060200160405280600081525061189f565b8061187e84611ae7565b60405160200161188f929190612b5a565b6040516020818303038152906040525b915050919050565b600073ffffffffffffffffffffffffffffffffffffffff168273ffffffffffffffffffffffffffffffffffffffff1603611916576040517f08c379a000000000000000000000000000000000000000000000000000000000815260040161190d90612d66565b60405180910390fd5b61191f816114d9565b1561195f576040517f08c379a000000000000000000000000000000000000000000000000000000000815260040161195690612dd2565b60405180910390fd5b61196d60008383600161151a565b611976816114d9565b156119b6576040517f08c379a00000000000000000000000000000000000000000000000000000000081526004016119ad90612dd2565b60405180910390fd5b6001600360008473ffffffffffffffffffffffffffffffffffffffff1673ffffffffffffffffffffffffffffffffffffffff16815260200190815260200160002060008282540192505081905550816002600083815260200190815260200160002060006101000a81548173ffffffffffffffffffffffffffffffffffffffff021916908373ffffffffffffffffffffffffffffffffffffffff160217905550808273ffffffffffffffffffffffffffffffffffffffff16600073ffffffffffffffffffffffffffffffffffffffff167fddf252ad1be2c89b69c2b068fc378daa952ba7f163c4a11628f55a4df523b3ef60405160405180910390a4611ac0600083836001611640565b5050565b6000808273ffffffffffffffffffffffffffffffffffffffff163b119050919050565b606060006001611af684611bb5565b01905060008167ffffffffffffffff811115611b1557611b146120bd565b5b6040519080825280601f01601f191660200182016040528015611b475781602001600182028036833780820191505090505b509050600082602001820190505b600115611baa578080600190039150507f3031323334353637383961626364656600000000000000000000000000000000600a86061a8153600a8581611b9e57611b9d612df2565b5b04945060008503611b55575b819350505050919050565b600080600090507a184f03e93ff9f4daa797ed6e38ed64bf6a1f0100000000000000008310611c13577a184f03e93ff9f4daa797ed6e38ed64bf6a1f0100000000000000008381611c0957611c08612df2565b5b0492506040810190505b6d04ee2d6d415b85acef81000000008310611c50576d04ee2d6d415b85acef81000000008381611c4657611c45612df2565b5b0492506020810190505b662386f26fc100008310611c7f57662386f26fc100008381611c7557611c74612df2565b5b0492506010810190505b6305f5e1008310611ca8576305f5e1008381611c9e57611c9d612df2565b5b0492506008810190505b6127108310611ccd576127108381611cc357611cc2612df2565b5b0492506004810190505b60648310611cf05760648381611ce657611ce5612df2565b5b0492506002810190505b600a8310611cff576001810190505b80915050919050565b828054611d1490612487565b90600052602060002090601f016020900481019282611d365760008555611d7d565b82601f10611d4f57805160ff1916838001178555611d7d565b82800160010185558215611d7d579182015b82811115611d7c578251825591602001919060010190611d61565b5b509050611d8a9190611d8e565b5090565b5b80821115611da7576000816000905550600101611d8f565b5090565b6000604051905090565b600080fd5b600080fd5b60007fffffffff0000000000000000000000000000000000000000000000000000000082169050919050565b611df481611dbf565b8114611dff57600080fd5b50565b600081359050611e1181611deb565b92915050565b600060208284031215611e2d57611e2c611db5565b5b6000611e3b84828501611e02565b91505092915050565b60008115159050919050565b611e5981611e44565b82525050565b6000602082019050611e746000830184611e50565b92915050565b600081519050919050565b600082825260208201905092915050565b60005b83811015611eb4578082015181840152602081019050611e99565b83811115611ec3576000848401525b50505050565b6000601f19601f8301169050919050565b6000611ee582611e7a565b611eef8185611e85565b9350611eff818560208601611e96565b611f0881611ec9565b840191505092915050565b60006020820190508181036000830152611f2d8184611eda565b905092915050565b6000819050919050565b611f4881611f35565b8114611f5357600080fd5b50565b600081359050611f6581611f3f565b92915050565b600060208284031215611f8157611f80611db5565b5b6000611f8f84828501611f56565b91505092915050565b600073ffffffffffffffffffffffffffffffffffffffff82169050919050565b6000611fc382611f98565b9050919050565b611fd381611fb8565b82525050565b6000602082019050611fee6000830184611fca565b92915050565b611ffd81611fb8565b811461200857600080fd5b50565b60008135905061201a81611ff4565b92915050565b6000806040838503121561203757612036611db5565b5b60006120458582860161200b565b925050602061205685828601611f56565b9150509250929050565b60008060006060848603121561207957612078611db5565b5b60006120878682870161200b565b93505060206120988682870161200b565b92505060406120a986828701611f56565b9150509250925092565b600080fd5b600080fd5b7f4e487b7100000000000000000000000000000000000000000000000000000000600052604160045260246000fd5b6120f582611ec9565b810181811067ffffffffffffffff82111715612114576121136120bd565b5b80604052505050565b6000612127611dab565b905061213382826120ec565b919050565b600067ffffffffffffffff821115612153576121526120bd565b5b61215c82611ec9565b9050602081019050919050565b82818337600083830152505050565b600061218b61218684612138565b61211d565b9050828152602081018484840111156121a7576121a66120b8565b5b6121b2848285612169565b509392505050565b600082601f8301126121cf576121ce6120b3565b5b81356121df848260208601612178565b91505092915050565b6000602082840312156121fe576121fd611db5565b5b600082013567ffffffffffffffff81111561221c5761221b611dba565b5b612228848285016121ba565b91505092915050565b60006020828403121561224757612246611db5565b5b60006122558482850161200b565b91505092915050565b61226781611f35565b82525050565b6000602082019050612282600083018461225e565b92915050565b61229181611e44565b811461229c57600080fd5b50565b6000813590506122ae81612288565b92915050565b600080604083850312156122cb576122ca611db5565b5b60006122d98582860161200b565b92505060206122ea8582860161229f565b9150509250929050565b600067ffffffffffffffff82111561230f5761230e6120bd565b5b61231882611ec9565b9050602081019050919050565b6000612338612333846122f4565b61211d565b905082815260208101848484011115612354576123536120b8565b5b61235f848285612169565b509392505050565b600082601f83011261237c5761237b6120b3565b5b813561238c848260208601612325565b91505092915050565b600080600080608085870312156123af576123ae611db5565b5b60006123bd8782880161200b565b94505060206123ce8782880161200b565b93505060406123df87828801611f56565b925050606085013567ffffffffffffffff811115612400576123ff611dba565b5b61240c87828801612367565b91505092959194509250565b6000806040838503121561242f5761242e611db5565b5b600061243d8582860161200b565b925050602061244e8582860161200b565b9150509250929050565b7f4e487b7100000000000000000000000000000000000000000000000000000000600052602260045260246000fd5b6000600282049050600182168061249f57607f821691505b6020821081036124b2576124b1612458565b5b50919050565b7f4552433732313a20617070726f76616c20746f2063757272656e74206f776e6560008201527f7200000000000000000000000000000000000000000000000000000000000000602082015250565b6000612514602183611e85565b915061251f826124b8565b604082019050919050565b6000602082019050818103600083015261254381612507565b9050919050565b7f4552433732313a20617070726f76652063616c6c6572206973206e6f7420746f60008201527f6b656e206f776e6572206f7220617070726f76656420666f7220616c6c000000602082015250565b60006125a6603d83611e85565b91506125b18261254a565b604082019050919050565b600060208201905081810360008301526125d581612599565b9050919050565b7f4552433732313a2063616c6c6572206973206e6f7420746f6b656e206f776e6560008201527f72206f7220617070726f76656400000000000000000000000000000000000000602082015250565b6000612638602d83611e85565b9150612643826125dc565b604082019050919050565b600060208201905081810360008301526126678161262b565b9050919050565b7f4552433732313a20696e76616c696420746f6b656e2049440000000000000000600082015250565b60006126a4601883611e85565b91506126af8261266e565b602082019050919050565b600060208201905081810360008301526126d381612697565b9050919050565b7f4552433732313a2061646472657373207a65726f206973206e6f74206120766160008201527f6c6964206f776e65720000000000000000000000000000000000000000000000602082015250565b6000612736602983611e85565b9150612741826126da565b604082019050919050565b6000602082019050818103600083015261276581612729565b9050919050565b7f4f776e61626c653a206e6577206f776e657220697320746865207a65726f206160008201527f6464726573730000000000000000000000000000000000000000000000000000602082015250565b60006127c8602683611e85565b91506127d38261276c565b604082019050919050565b600060208201905081810360008301526127f7816127bb565b9050919050565b7f4552433732313a207472616e736665722066726f6d20696e636f72726563742060008201527f6f776e6572000000000000000000000000000000000000000000000000000000602082015250565b600061285a602583611e85565b9150612865826127fe565b604082019050919050565b600060208201905081810360008301526128898161284d565b9050919050565b7f4552433732313a207472616e7366657220746f20746865207a65726f2061646460008201527f7265737300000000000000000000000000000000000000000000000000000000602082015250565b60006128ec602483611e85565b91506128f782612890565b604082019050919050565b6000602082019050818103600083015261291b816128df565b9050919050565b7f4f776e61626c653a2063616c6c6572206973206e6f7420746865206f776e6572600082015250565b6000612958602083611e85565b915061296382612922565b602082019050919050565b600060208201905081810360008301526129878161294b565b9050919050565b7f45524337323155524953746f726167653a2055524920736574206f66206e6f6e60008201527f6578697374656e7420746f6b656e000000000000000000000000000000000000602082015250565b60006129ea602e83611e85565b91506129f58261298e565b604082019050919050565b60006020820190508181036000830152612a19816129dd565b9050919050565b7f4552433732313a20617070726f766520746f2063616c6c657200000000000000600082015250565b6000612a56601983611e85565b9150612a6182612a20565b602082019050919050565b60006020820190508181036000830152612a8581612a49565b9050919050565b7f4552433732313a207472616e7366657220746f206e6f6e20455243373231526560008201527f63656976657220696d706c656d656e7465720000000000000000000000000000602082015250565b6000612ae8603283611e85565b9150612af382612a8c565b604082019050919050565b60006020820190508181036000830152612b1781612adb565b9050919050565b600081905092915050565b6000612b3482611e7a565b612b3e8185612b1e565b9350612b4e818560208601611e96565b80840191505092915050565b6000612b668285612b29565b9150612b728284612b29565b91508190509392505050565b7f4e487b7100000000000000000000000000000000000000000000000000000000600052601160045260246000fd5b6000612bb882611f35565b9150612bc383611f35565b925082821015612bd657612bd5612b7e565b5b828203905092915050565b6000612bec82611f35565b9150612bf783611f35565b9250827fffffffffffffffffffffffffffffffffffffffffffffffffffffffffffffffff03821115612c2c57612c2b612b7e565b5b828201905092915050565b600081519050919050565b600082825260208201905092915050565b6000612c5e82612c37565b612c688185612c42565b9350612c78818560208601611e96565b612c8181611ec9565b840191505092915050565b6000608082019050612ca16000830187611fca565b612cae6020830186611fca565b612cbb604083018561225e565b8181036060830152612ccd8184612c53565b905095945050505050565b600081519050612ce781611deb565b92915050565b600060208284031215612d0357612d02611db5565b5b6000612d1184828501612cd8565b91505092915050565b7f4552433732313a206d696e7420746f20746865207a65726f2061646472657373600082015250565b6000612d50602083611e85565b9150612d5b82612d1a565b602082019050919050565b60006020820190508181036000830152612d7f81612d43565b9050919050565b7f4552433732313a20746f6b656e20616c7265616479206d696e74656400000000600082015250565b6000612dbc601c83611e85565b9150612dc782612d86565b602082019050919050565b60006020820190508181036000830152612deb81612daf565b9050919050565b7f4e487b7100000000000000000000000000000000000000000000000000000000600052601260045260246000fdfea26469706673582212205545df2441b23025c359a8310b2d0e9bd44d942ff41540a24ead418b373ac10464736f6c634300080e0033",
  "linkReferences": {},
  "deployedLinkReferences": {}
}